:020000040800F2
:1000000000000220C5200008AD1E0008B31E000835
:10001000B91E0008BF1E0008C51E00080000000031
:10002000000000000000000000000000CB1E0008DF
:10003000D91E000800000000E71E0008F51E000899
:1000400015210008152100081521000815210008B8
:1000500015210008152100081521000815210008A8
:100060001521000815210008152100081521000898
:100070001521000815210008152100081521000888
:100080001521000815210008152100081521000878
:100090001521000815210008152100081521000868
:1000A0001521000815210008152100081521000858
:1000B000011F00081521000815210008152100085E
:1000C0001521000815210008152100081521000838
:1000D0001521000815210008152100081521000828
:1000E0001521000815210008152100081521000818
:1000F0001521000815210008152100081521000808
:1001000015210008152100081521000815210008F7
:1001100015210008152100081521000815210008E7
:1001200015210008152100081521000815210008D7
:1001300015210008152100081521000815210008C7
:1001400015210008152100081521000815210008B7
:1001500015210008152100081521000815210008A7
:100160001521000815210008152100081521000897
:1001700015210008152100081521000800000000C5
:080180001521000815210008FB
:1001900010B5054C237833B9044B13B10448AFF3C1
:1001A00000800123237010BDE0010020000000004A
:1001B0001C68000808B5034B1BB103490348AFF3A3
:1001C000008008BD00000000E40100201C68000859
:1001D000034613F8012B002AFBD1181A0138704787
:1001E00001F0FF01102A2BDB10F0070F08D010F8E8
:1001F000013B013A8B422DD010F0070F42B3F6D1EC
:10020000F0B441EA012141EA014122F007047FF004
:1002100000070023F0E80256083C85EA010586EA5B
:10022000010685FA47F5A3FA87F586FA47F6A5FA97
:1002300087F68EB9EED1F0BC01F0FF0102F00702A3
:1002400032B110F8013B013A83EA010313B1F8D14E
:100250000020704701387047002D06BF354603382F
:10026000073815F0010F07D1013015F4807F02BF68
:10027000013015F4C03F0130F0BC0138704700BFB9
:1002800081F0004102E000BF83F0004330B54FEA47
:1002900041044FEA430594EA050F08BF90EA020FB4
:1002A0001FBF54EA000C55EA020C7FEA645C7FEA47
:1002B000655C00F0E2804FEA5454D4EB5555B8BF6A
:1002C0006D420CDD2C4480EA020281EA030382EADB
:1002D000000083EA010180EA020281EA0303362D6D
:1002E00088BF30BD11F0004F4FEA01314FF4801C40
:1002F0004CEA113102D0404261EB410113F0004F52
:100300004FEA03334CEA133302D0524263EB430308
:1003100094EA050F00F0A780A4F10104D5F1200EA6
:100320000DDB02FA0EFC22FA05F2801841F1000101
:1003300003FA0EF2801843FA05F359410EE0A5F1D5
:1003400020050EF1200E012A03FA0EFC28BF4CF006
:10035000020C43FA05F3C01851EBE37101F00045BC
:1003600007D54FF0000EDCF1000C7EEB00006EEBC9
:100370000101B1F5801F1BD3B1F5001F0CD3490853
:100380005FEA30004FEA3C0C04F101044FEA4452AA
:1003900012F5800F80F09A80BCF1004F08BF5FEA31
:1003A000500C50F1000041EB045141EA050130BD11
:1003B0005FEA4C0C404141EB0101013C28BFB1F523
:1003C000801FE9D291F0000F04BF01460020B1FA6E
:1003D00081F308BF2033A3F10B03B3F120020CDA41
:1003E0000C3208DD02F1140CC2F10C0201FA0CF01F
:1003F00021FA02F10CE002F11402D8BFC2F1200C84
:1004000001FA02F120FA0CFCDCBF41EA0C01904039
:10041000E41AA2BF01EB0451294330BD6FEA040482
:100420001F3C1CDA0C340EDC04F11404C4F120026D
:1004300020FA04F001FA02F340EA030021FA04F37F
:1004400045EA030130BDC4F10C04C4F1200220FAD6
:1004500002F001FA04F340EA0300294630BD21FA14
:1004600004F0294630BD94F0000F83F4801306BFDA
:1004700081F480110134013D4EE77FEA645C18BFCE
:100480007FEA655C29D094EA050F08BF90EA020F65
:1004900005D054EA000C04BF1946104630BD91EA5D
:1004A000030F1EBF0021002030BD5FEA545C05D160
:1004B0004000494128BF41F0004130BD14F580049F
:1004C0003CBF01F5801130BD01F0004545F0FE4113
:1004D00041F470014FF0000030BD7FEA645C1ABF48
:1004E000194610467FEA655C1CBF0B46024650EA7F
:1004F000013406BF52EA033591EA030F41F40021AB
:1005000030BD00BF90F0000F04BF0021704730B530
:100510004FF4806404F132044FF000054FF0000105
:1005200050E700BF90F0000F04BF0021704730B5C6
:100530004FF4806404F1320410F0004548BF40429B
:100540004FF000013EE700BF42004FEAE2014FEAF0
:1005500031014FEA02701FBF12F07F4393F07F4FCB
:1005600081F06051704732F07F4208BF704793F0CE
:100570007F4F04BF41F40021704730B54FF46074E1
:1005800001F0004521F000411CE700BF50EA0102E4
:1005900008BF704730B54FF000050AE050EA01028D
:1005A00008BF704730B511F0004502D5404261EBFD
:1005B00041014FF4806404F132045FEA915C3FF43E
:1005C000D8AE4FF003025FEADC0C18BF03325FEADB
:1005D000DC0C18BF033202EBDC02C2F1200300FA8C
:1005E00003FC20FA02F001FA03FE40EA0E0021FAB1
:1005F00002F11444BDE600BF70B54FF0FF0C4CF49F
:10060000E06C1CEA11541DBF1CEA135594EA0C0F50
:1006100095EA0C0F00F0DEF82C4481EA030621EA8B
:100620004C5123EA4C5350EA013518BF52EA0335C6
:1006300041F4801143F4801338D0A0FB02CE4FF078
:100640000005E1FB02E506F00042E0FB03E54FF0A8
:100650000006E1FB03569CF0000F18BF4EF0010EA0
:10066000A4F1FF04B6F5007F64F5407404D25FEA9C
:100670004E0E6D4146EB060642EAC62141EA55514F
:100680004FEAC52040EA5E504FEACE2EB4F1FD0C91
:1006900088BFBCF5E06F1ED8BEF1004F08BF5FEA0F
:1006A000500E50F1000041EB045170BD06F00046C1
:1006B00046EA010140EA020081EA0301B4EB5C046E
:1006C000C2BFD4EB0C0541EA045170BD41F4801166
:1006D0004FF0000E013C00F3AB8014F1360FDEBF8B
:1006E000002001F0004170BDC4F10004203C35DA67
:1006F0000C341BDC04F11404C4F1200500FA05F3EA
:1007000020FA04F001FA05F240EA020001F000428A
:1007100021F0004110EBD37021FA04F642EB060100
:100720005EEA430E08BF20EAD37070BDC4F10C042A
:10073000C4F1200500FA04F320FA05F001FA04F2EE
:1007400040EA020001F0004110EBD37041F10001DA
:100750005EEA430E08BF20EAD37070BDC4F12005E5
:1007600000FA05F24EEA020E20FA04F301FA05F24D
:1007700043EA020321FA04F001F0004121FA04F2F5
:1007800020EA020000EBD3705EEA430E08BF20EAC5
:10079000D37070BD94F0000F0FD101F000464000FF
:1007A00041EB010111F4801F08BF013CF7D041EA81
:1007B000060195F0000F18BF704703F00046520085
:1007C00043EB030313F4801F08BF013DF7D043EA56
:1007D0000603704794EA0C0F0CEA135518BF95EA0C
:1007E0000C0F0CD050EA410618BF52EA4306D1D193
:1007F00081EA030101F000414FF0000070BD50EAB2
:10080000410606BF1046194652EA430619D094EA3B
:100810000C0F02D150EA013613D195EA0C0F05D125
:1008200052EA03361CBF104619460AD181EA030179
:1008300001F0004141F0FE4141F470014FF0000031
:1008400070BD41F0FE4141F4780170BD70B54FF0CC
:10085000FF0C4CF4E06C1CEA11541DBF1CEA13554C
:1008600094EA0C0F95EA0C0F00F0A7F8A4EB05042E
:1008700081EA030E52EA03354FEA013100F0888025
:100880004FEA03334FF0805545EA131343EA1263EE
:100890004FEA022245EA111545EA10654FEA0026A3
:1008A0000EF000419D4208BF964244F1FD0404F55C
:1008B000407402D25B084FEA3202B61A65EB0305B8
:1008C0005B084FEA32024FF480104FF4002CB6EB75
:1008D000020E75EB030E22BFB61A754640EA0C00F5
:1008E0005B084FEA3202B6EB020E75EB030E22BF35
:1008F000B61A754640EA5C005B084FEA3202B6EB76
:10090000020E75EB030E22BFB61A754640EA9C0034
:100910005B084FEA3202B6EB020E75EB030E22BF04
:10092000B61A754640EADC0055EA060E18D04FEAC2
:10093000051545EA16754FEA06164FEAC30343EA62
:1009400052734FEAC2025FEA1C1CC0D111F4801F2F
:100950000BD141EA00014FF000004FF0004CB6E728
:1009600011F4801F04BF01430020B4F1FD0C88BFC7
:10097000BCF5E06F3FF6AFAEB5EB030C04BFB6EBD2
:10098000020C5FEA500C50F1000041EB045170BDC5
:100990000EF0004E4EEA113114EB5C04C2BFD4EBF2
:1009A0000C0541EA045170BD41F480114FF0000E76
:1009B000013C90E645EA060E8DE60CEA135594EAF2
:1009C0000C0F08BF95EA0C0F3FF43BAF94EA0C0FF5
:1009D0000AD150EA01347FF434AF95EA0C0F7FF46A
:1009E00025AF104619462CE795EA0C0F06D152EABE
:1009F00003353FF4FDAE1046194622E750EA4106A2
:100A000018BF52EA43067FF4C5AE50EA41047FF4B2
:100A10000DAF52EA43057FF4EBAE12E74FF0FF3C17
:100A200006E000BF4FF0010C02E000BF4FF0010CE8
:100A30004DF804CD4FEA410C7FEA6C5C4FEA430C61
:100A400018BF7FEA6C5C1BD001B050EA410C0CBFB0
:100A500052EA430C91EA030F02BF90EA020F002012
:100A6000704710F1000F91EA030F58BF994208BF79
:100A700090422CBFD8176FEAE37040F00100704736
:100A80004FEA410C7FEA6C5C02D150EA013C07D18D
:100A90004FEA430C7FEA6C5CD6D152EA033CD3D0D8
:100AA0005DF8040B704700BF8446104662468C46D2
:100AB0001946634600E000BF01B5FFF7B7FF002805
:100AC00048BF10F1000F01BD4DF808EDFFF7F4FF2E
:100AD0000CBF012000205DF808FB00BF4DF808EDB9
:100AE000FFF7EAFF34BF012000205DF808FB00BFDC
:100AF0004DF808EDFFF7E0FF94BF012000205DF8FE
:100B000008FB00BF4DF808EDFFF7CEFF94BF0120B2
:100B100000205DF808FB00BF4DF808EDFFF7C4FFAB
:100B200034BF012000205DF808FB00BF4FEA410CF4
:100B30007FEA6C5C02D150EA013C0AD14FEA430CD7
:100B40007FEA6C5C02D152EA033C02D14FF0000014
:100B500070474FF0010070474FEA410212F5001252
:100B600015D211D56FF47873B3EB625212D94FEAF4
:100B7000C12343F0004343EA505311F0004F23FADE
:100B800002F018BF404270474FF00000704750EA33
:100B9000013005D111F0004008BF6FF000407047F0
:100BA0004FF00000704700BF4FEA4102B2F1E0434E
:100BB00024BFB3F5001CDCF1FE5C0DD901F0004C44
:100BC0004FEAC0024CEA5070B2F1004F40EB830094
:100BD00008BF20F00100704711F0804F21D113F1C0
:100BE0003872BCBF01F00040704741F480114FEAF9
:100BF0005252C2F11802C2F1200C10FA0CF320FA82
:100C000002F018BF40F001004FEAC1234FEAD3239E
:100C100003FA0CFC40EA0C0023FA02F34FEA430308
:100C2000CCE77FEA625307D150EA01331EBF4FF091
:100C3000FE4040F44000704701F0004040F0FE40AC
:100C400040F40000704700BF53B94AB9002908BFFB
:100C500000281CBF4FF0FF314FF0FF3000F06EB99D
:100C6000ADF1080C6DE904CE00F006F8DDF804E003
:100C7000DDE9022304B070472DE9F047089D0446E2
:100C80008C46002B40F083808A42174647D9B2FA3F
:100C900082F242B1C2F1200024FA00F09140974064
:100CA00040EA010C94404FEA1748230CBCFBF8F6CD
:100CB0001FFA87FE08FB16C143EA014306FB0EF14B
:100CC000994209D9FB1806F1FF3080F01981994249
:100CD00040F21681023E3B445B1AA4B2B3FBF8F02B
:100CE00008FB103344EA034400FB0EFEA64509D975
:100CF0003C1900F1FF3380F00581A64540F20281E6
:100D000002383C4440EA0640A4EB0E0400261DB124
:100D1000D4400023C5E900433146BDE8F08702B95D
:100D2000FFDEB2FA82F2002A50D1CB1B4FEA174EF7
:100D30001FFA87F80126B3FBFEFC210C0EFB1C33C7
:100D400041EA034108FB0CF38B4207D979180CF1F7
:100D5000FF3002D28B4200F2E9808446C91AA3B266
:100D6000B1FBFEF00EFB101143EA014408FB00F852
:100D7000A04507D93C1900F1FF3302D2A04500F28B
:100D8000D9801846A4EB080440EA0C40BFE78B4228
:100D900009D9002D00F0B1800026C5E900013046D8
:100DA0003146BDE8F087B3FA83F6002E4AD18B4274
:100DB00002D3824200F2B880841A61EB0301012061
:100DC0008C46002DA8D0C5E9004CA5E7C2F1200350
:100DD00020FA03F6974001FA02F04FEA174ED94085
:100DE0003043030CB1FBFEF61FFA87F80EFB161119
:100DF00043EA014306FB08F1994204FA02F409D9D7
:100E0000FB1806F1FF3C80F08D80994240F28A8009
:100E1000023E3B445B1A81B2B3FBFEF00EFB103383
:100E200041EA034100FB08F38B4207D9791800F12E
:100E3000FF3C73D28B4271D902383944CB1A40EA55
:100E4000064678E7C6F1200C03FA06F422FA0CF302
:100E50001C4320FA0CF701FA06F34FEA144E21FA6C
:100E60000CF11F433B0CB1FBFEF91FFA84F80EFB9B
:100E7000191143EA014109FB08FA8A4502FA06F210
:100E800000FA06F308D9611809F1FF3048D28A4503
:100E900046D9A9F102092144A1EB0A01BFB2B1FB75
:100EA000FEF00EFB101147EA014700FB08F8B845B9
:100EB00007D9E71900F1FF312ED2B8452CD90238F5
:100EC000274440EA0940A7EB0807A0FB02894F45E9
:100ED000C64649461AD317D05DB1B3EB0E0267EB95
:100EE000010707FA0CFCF2404CEA0202F740C5E9A0
:100EF000002700263146BDE8F0872E4628460BE73E
:100F00000646E9E61846FDE64345E5D2B8EB020E93
:100F100069EB04010138DFE70846D2E760468DE758
:100F20008146B9E7664675E730464AE7ACF1020C00
:100F3000394413E702383C4424E700BF704700BF40
:100F400080B483B000AF0346FB80094B1B680022CE
:100F50005A6200BF064B1B685A6AFB889A42F9D353
:100F600000BF00BF0C37BD465DF8047B704700BF73
:100F70003802002080B58AB000AF87ED010A002159
:100F8000002000F09FFB0B4800F0E4FB7868FFF7BF
:100F9000DBFA02460B4607F10800074903F012FA94
:100FA00007F10803184600F0D5FB00BF2837BD46FF
:100FB00080BD00BF386800084068000880B58AB06E
:100FC00000AF87ED010A0121002000F07BFB0B48F8
:100FD00000F0C0FB7868FFF7B7FA02460B4607F14E
:100FE0000800074903F0EEF907F10803184600F07E
:100FF000B1FB00BF2837BD4680BD00BF4868000870
:101000004068000880B586B000AF0023FB753B4602
:1010100000221A605A609A60DA601A6104233B6009
:1010200001237B600023FB600023BB603B46194625
:101030002A4801F019FA00220421284801F0C8FBCF
:10104000142001F0DBF801220421244801F0C0FB48
:101050001E20FFF775FF00237B600123BB603B462A
:1010600019461E4801F000FA2820FFF769FF042105
:101070001A4801F095FB0346002B0BD15020FFF7D7
:101080005FFF0421154801F08BFB0346002B01D0C4
:101090000123FB7501F0A6F80346114A136001F025
:1010A000A1F803460F4A136004E001F09BF80346E1
:1010B0000C4A13600421094801F072FB0346002B1F
:1010C00006D0074B1B689A1C064B1B689A42ECD84B
:1010D000FB7D18461837BD4680BD00BF00000240AA
:1010E000340200203002002080B582B000AF00231F
:1010F000FB7163E001F076F80346344A136001F0B7
:1011000071F80346324A136004E001F06BF80346BD
:101110002F4A136004212F4801F042FB0346002BA5
:1011200006D12A4B1B689A1C294B1B689A42ECD8A3
:101130002820FFF705FF0421264801F031FB034674
:10114000002B0ED1FB79C3F10703012202FA03F34E
:101150005BB2DB435AB297F9063013405BB2BB7106
:101160000BE0FB79C3F10703012202FA03F35AB241
:1011700097F9063013435BB2BB7101F033F80346B5
:10118000124A136001F02EF80346114A136004E07E
:1011900001F028F803460E4A136004210D4801F0BF
:1011A000FFFA0346002B06D0084B1B689A1C084B1D
:1011B0001B689A42ECD8FB790133FB71FB79072B52
:1011C00098D9BB7918460837BD4680BD3402002047
:1011D000300200200000024080B58EB00AAFF860F7
:1011E000084611461A4603467B810B463B8113464F
:1011F000FB801D4B1B78002B19D039897A8900237D
:101200000893002307930023069300230593BB8CC8
:1012100004933B8C0393BB8B02933B8B0193FB8822
:1012200000930B46F968012000F020F818E0398996
:101230007A89002308930023079300230693002351
:101240000593BB8C04933B8C0393BB8B02933B8B2A
:101250000193FB8800930B46F968002000F006F824
:1012600000BF1037BD4680BD0000002080B584B0AF
:1012700000AFB96011461A460346FB730B46BB81AB
:101280001346FB801A4ABB8913801A4AFB881380D5
:10129000194A3B8B1380194ABB681360184ABB8BF1
:1012A0001380174A3B8C5380154ABB8C9380144A99
:1012B0003B8DD380124ABB8D1381114A3B8E5381E3
:1012C0000F4ABB8E93810E4A3B8FD381FB7B002B51
:1012D00003D00C4B00221A7002E00A4B10221A7045
:1012E0000221102000F010F800BF1037BD4680BD6D
:1012F000A402002084020020A20200208802002014
:1013000090020020A102002080B588B000AF034603
:101310000A46FB711346BB71BB79012B06D9774B8B
:101320001B7843F00803DAB2744B1A70744ABB7925
:101330001370FA79FB7940334021002000F098F9CE
:10134000704B1B78002B09D0BB79012B06D16B4B5E
:101350001B7843F00403DAB2684B1A7000F0E4F82B
:101360000223BB6101233B61674B1B78002B1BD021
:10137000664B1A88664B1B8813439AB2654B1B88D1
:1013800013439AB2644B1B8813439AB2624B5B8837
:1013900013439AB2604B9B8813439AB25E4BDB882F
:1013A00013439BB2FB602AE0584B1A88584B1B88AA
:1013B00013439AB2574B1B8813439AB2564B1B8860
:1013C00013439AB2544B5B8813439AB2524B9B8897
:1013D00013439AB2504BDB8813439AB24E4B1B898E
:1013E00013439AB24C4B5B8913439AB24A4B9B8985
:1013F00013439AB2484BDB8913439BB2FB60474BC4
:101400001B6807F10C021146184601F02DF8322036
:1014100000F0F4FE414B1B683C4A1188002218463C
:1014200001F0D6F93D4B1B683A4A11880022184654
:1014300001F0CEF9364B1B88FF2B07D0374B1B68CA
:10144000334A11880022184601F0C2F92B4B1B7851
:1014500003F01003002B15D1032000F02BFA052018
:1014600000F0CCFE032000F025FA052000F0C6FEB7
:10147000032000F01FFA012000F0C0FE022000F05F
:1014800019FA1DE01D4B1B7843F02003DBB2184610
:1014900000F08BF9052000F0B1FE184B1B7843F0EB
:1014A0002003DBB2184600F080F9012000F0A6FE10
:1014B000124B1B7843F02003DBB2184600F075F99D
:1014C0000E4B1B7843F02003DBB2184600F06DF999
:1014D000134B04221A7000F027F900F0E9F8114BC1
:1014E00002221A700F4B1B7843F00403DBB218463C
:1014F00000F05BF900BF2037BD4680BDA10200208F
:101500008D020020FC01002000000020A402002029
:1015100084020020A2020020900200208802002005
:101520008C020020A002002080B489B000AF484B9C
:101530001B68484A93420ED10023FB61464B1B6B4C
:10154000454A43F001031363434B1B6B03F0010354
:10155000FB61FB6976E03E4B1B68404A93420ED12B
:101560000023BB613C4B1B6B3B4A43F002031363FC
:10157000394B1B6B03F00203BB61BB6962E0344B68
:101580001B68364A93420ED100237B61324B1B6BA2
:10159000314A43F0020313632F4B1B6B03F002032A
:1015A0007B617B694EE02A4B1B682D4A93420ED12A
:1015B00000233B61284B1B6B274A43F00403136352
:1015C000254B1B6B03F004033B613B693AE0204B66
:1015D0001B68244A93420ED10023FB601E4B1B6BF9
:1015E0001D4A43F0080313631B4B1B6B03F00803F6
:1015F000FB60FB6826E0164B1B681B4A93420ED12A
:101600000023BB60144B1B6B134A43F0100313639E
:10161000114B1B6B03F01003BB60BB6812E00C4B5B
:101620001B68124A93420DD100237B600A4B1B6B4F
:10163000094A43F020031363074B1B6B03F020039D
:101640007B607B6800BF2437BD465DF8047B704734
:1016500088020020000002400038024000040240DE
:1016600000080240000C024000100240001402403A
:1016700080B485B000AFF860B9607A603B60FB6809
:10168000DAB20A4B1A70BB68DAB2084B5A707B6840
:10169000DAB2064B9A703B68DAB2044BDA7000BFDC
:1016A0001437BD465DF8047B704700BF8002002000
:1016B00080B500AF012000F078F8022000F09EFD18
:1016C00000BF80BD80B584B000AF03460A46FB7101
:1016D0001346BB710423FB60BB79FA689A4203D8B6
:1016E000FB68DBB2013BBB710D4B1B78BA799A42A8
:1016F00003D30B4B1B78013BBB71BB79094AD25C0E
:10170000FB791344DBB25BB263F07F035BB2DBB205
:10171000184600F04AF800BF1037BD4680BD00BF34
:101720008D0200208002002080B500AF084B1B789E
:1017300043F00403DAB2064B1A70054B1B7843F0F2
:101740000803DBB2184600F030F800BF80BD00BFD0
:101750008C02002080B586B000AF78607B68002BDB
:1017600001D100231DE07B687B617868FEF730FDC6
:1017700038610023FB600CE07B695A1C7A611B789E
:10178000184600F020F80346002B08D0FB68013310
:10179000FB603B695A1E3A61002BEDD100E000BFAF
:1017A000FB6818461837BD4680BD80B582B000AFD3
:1017B0000346FB71FB790021184600F013F800BFC7
:1017C0000837BD4680BD80B582B000AF0346FB71CF
:1017D000FB790121184600F005F801231846083767
:1017E000BD4680BD80B582B000AF03460A46FB719E
:1017F0001346BB71164B1B68164A1188BA791846F6
:1018000000F0E6FF144B1B88FF2B07D0104B1B6822
:10181000114A11880022184600F0DAFF0F4B1B789E
:1018200003F01003002B04D0FB79184600F06CF88D
:1018300009E0FB791B09DBB2184600F03BF8FB79A5
:10184000184600F037F800BF0837BD4680BD00BF1E
:1018500088020020A402002084020020A1020020AF
:1018600080B500AF114B1B68114A11880022184641
:1018700000F0AEFF012000F0C1FC0C4B1B680C4ACD
:1018800011880122184600F0A3FF012000F0B6FCE9
:10189000064B1B68064A11880022184600F098FF84
:1018A000012000F0ABFC00BF80BD00BF880200201B
:1018B000A202002080B584B000AF0346FB71002374
:1018C000FB6013E00E4B18680E4AFB6832F81310E9
:1018D000FA79FB6842FA03F3DBB203F00103DBB2EF
:1018E0001A4600F075FFFB680133FB60FB68032BB1
:1018F000E8DDFFF7B5FF00BF1037BD4680BD00BF74
:10190000880200209002002080B584B000AF03461A
:10191000FB710023FB6013E00E4B18680E4AFB6856
:1019200032F81310FA79FB6842FA03F3DBB203F0E2
:101930000103DBB21A4600F04BFFFB680133FB608A
:10194000FB68072BE8DDFFF78BFF00BF1037BD46B4
:1019500080BD00BF880200209002002080B52DEDE0
:10196000028B84B004AF00F0D7FB00F0E1F800F088
:1019700093F900F045F9604801F056FC5E4801F02B
:10198000EBFB4FF4804303934FF4005302934FF467
:10199000805301934FF4006300934FF480634FF43E
:1019A00000724FF480715548FFF716FC0221102099
:1019B000FFF7AAFCFFF77CFE5148FFF7CBFE41F290
:1019C000883000F01BFCFFF773FE4E4BD3ED007A1E
:1019D000B0EE670AFFF7CEFA4B4BD3ED007AB0EECC
:1019E000670AFFF7EBFAFFF70DFB0346002B79D0F0
:1019F000FFF77AFB03461A46444B1A70FFF774FB55
:101A000003461A46424B1A70FFF76EFB03461A460E
:101A1000404B1A70FFF768FB03461A463E4B1A709C
:101A2000FFF762FB03461A463C4B1A70374B1B7894
:101A30001A46374B1B781344364A12781344364AF9
:101A400012781344354A127893424BD1314B1B78AC
:101A500007EE903AB8EE678A2F4B1B781846FEF7D0
:101A600061FD4FF000022E4BFEF7F0FE02460B46E2
:101A700010461946FFF798F807EE900A78EE277A95
:101A8000204BC3ED007A1F4BD3ED007AB2EE027A01
:101A900027EE877AF1EE046AC7EE267A9FED217A67
:101AA00077EE877A204BC3ED007A184B1B7807EE50
:101AB000903AB8EE678A164B1B781846FEF732FD4F
:101AC0004FF00002164BFEF7C1FE02460B461046D1
:101AD0001946FFF769F807EE900A78EE277A0A4B65
:101AE000C3ED007A1021114800F08BFE4FF4FA602C
:101AF00000F084FB69E700BF38020020000C0240C0
:101B0000546800080002002008020020A8020020FB
:101B1000A9020020AB020020A7020020AA02002098
:101B200000002440000000420402002000000240A7
:101B300080B594B000AF07F1200330220021184691
:101B400001F0CEFF07F10C0300221A605A609A6080
:101B5000DA601A610023BB60274B1B6C264A43F0F6
:101B600080531364244B1B6C03F08053BB60BB6831
:101B700000237B60214B1B68204A43F480431360A1
:101B80001E4B1B6803F480437B607B6801233B6230
:101B90004FF480337B620223BB634FF48003FB630B
:101BA00004233B6454237B640223BB640423FB644F
:101BB00007F12003184600F03FFE0346002B01D03A
:101BC00000F0DCF80F23FB6002233B6180237B6184
:101BD0000023BB610023FB6107F10C0301211846C0
:101BE00001F0A2F80346002B01D000F0C7F800BFB7
:101BF0005037BD4680BD00BF003802400070004035
:101C000080B586B000AF07F1080300221A605A6061
:101C10009A60DA603B4600221A605A601D4B4FF012
:101C200080421A601B4B29225A601A4B00229A608C
:101C3000184B4FF6FE72DA60164B00221A61154BF4
:101C400000229A61134801F037FA0346002B01D0B5
:101C500000F094F84FF48053BB6007F10803194675
:101C60000C4801F059FC0346002B01D000F086F827
:101C700000233B6000237B603B461946054801F08A
:101C800075FE0346002B01D000F078F800BF18372E
:101C9000BD4680BD3802002080B588B000AF07F196
:101CA0000C0300221A605A609A60DA601A610023FD
:101CB000BB602A4B1B6B294A43F080031363274BFD
:101CC0001B6B03F08003BB60BB6800237B60234B6E
:101CD0001B6B224A43F001031363204B1B6B03F081
:101CE00001037B607B6800233B601C4B1B6B1B4A22
:101CF00043F008031363194B1B6B03F008033B60AD
:101D00003B6800221421164800F062FD00224FF4C7
:101D1000FE41144800F05CFD1423FB6001233B618D
:101D200000237B610023BB6107F10C0319460C48BB
:101D300000F09AFB4FF4FE43FB6001233B6100235C
:101D40007B610023BB6107F10C031946054800F0D5
:101D50008BFB00BF2037BD4680BD00BF003802406E
:101D600000000240000C024080B582B000AF7860F5
:101D700000F00AF800BF0837BD4680BD80B400AF50
:101D800072B600BFFEE7000080B400AF1A4B1B68BC
:101D9000002B0BDD184B1B68013B174A1360164BD9
:101DA0001B68002B02DC154B01221A60144B1B68C8
:101DB000002B0BDD124B1B68013B114A1360104BCB
:101DC0001B68002B02DC0F4B01221A600E4B1B68B4
:101DD000002B0BDD0C4B1B68013B0B4A13600A4BBD
:101DE0001B68002B02DC094B01221A6000BFBD46B4
:101DF0005DF8047B704700BF100200200C02002039
:101E00001802002014020020200200201C020020E2
:101E100080B483B000AF00237B60104B5B6C0F4A33
:101E200043F4804353640D4B5B6C03F480437B604D
:101E30007B6800233B60094B1B6C084A43F08053CE
:101E40001364064B1B6C03F080533B603B6800BF80
:101E50000C37BD465DF8047B704700BF0038024078
:101E600080B584B000AF78607B681B68B3F1804FA9
:101E700015D10023FB600C4B1B6C0B4A43F0010394
:101E80001364094B1B6C03F00103FB60FB68002229
:101E900000211C2000F0B1FA1C2000F0CAFA00BF9B
:101EA0001037BD4680BD00BF0038024080B400AF8F
:101EB000FEE780B400AFFEE780B400AFFEE780B479
:101EC00000AFFEE780B400AFFEE780B400AF00BF14
:101ED000BD465DF8047B704780B400AF00BFBD46CF
:101EE0005DF8047B704780B400AF00BFBD465DF86D
:101EF000047B704780B500AF00F060F900BF80BD83
:101F000080B500AF024801F0FFF900BF80BD00BFFF
:101F10003802002080B400AF01231846BD465DF8AA
:101F2000047B704780B582B000AF7860396001F003
:101F3000ADFD034616221A604FF0FF3318460837EE
:101F4000BD4680BD80B582B000AF78604FF0FF31F4
:101F50007868FFF7E7FFFEE780B586B000AFF8606E
:101F6000B9607A6000237B610AE0AFF3008001462C
:101F7000BB685A1CBA60CAB21A707B6901337B61B4
:101F80007A697B689A42F0DB7B6818461837BD4651
:101F900080BD80B586B000AFF860B9607A6000237C
:101FA0007B6109E0BB685A1CBA601B781846AFF326
:101FB00000807B6901337B617A697B689A42F1DB3F
:101FC0007B6818461837BD4680BD80B483B000AF2B
:101FD00078604FF0FF3318460C37BD465DF8047B40
:101FE000704780B483B000AF786039603B684FF4CD
:101FF00000525A60002318460C37BD465DF8047B3A
:10200000704780B483B000AF7860012318460C3766
:10201000BD465DF8047B704780B485B000AFF860C2
:10202000B9607A60002318461437BD465DF8047B1A
:102030007047000080B586B000AF7860144A154B39
:10204000D31A7B617B693B61134B1B68002B02D168
:10205000114B124A1A60104B1A687B6813443A6994
:102060009A4207D201F012FD03460C221A604FF08B
:10207000FF3309E0084B1B68FB60074B1A687B685D
:102080001344054A1360FB6818461837BD4680BDE7
:10209000000002200004000024020020C0020020F2
:1020A00080B400AF064BD3F88830054A43F4700380
:1020B000C2F8883000BFBD465DF8047B704700BFA2
:1020C00000ED00E0DFF834D00D480E490E4A002341
:1020D00002E0D458C4500433C4188C42F9D30B4ADC
:1020E0000B4C002301E013600432A242FBD3FFF744
:1020F000D7FF01F0D1FCFFF731FC70470000022050
:1021000000000020E0010020646C0008E0010020D5
:10211000C0020020FEE7000080B500AF0E4B1B6838
:102120000D4A43F4007313600B4B1B680A4A43F4D7
:1021300080631360084B1B68074A43F48073136085
:10214000032000F04FF90F2000F008F8FFF760FEC1
:102150000023184680BD00BF003C024080B582B01D
:1021600000AF7860124B1A68124B1B7819464FF477
:102170007A73B3FBF1F3B2FBF3F3184600F067F99F
:102180000346002B01D001230EE07B680F2B0AD8F9
:10219000002279684FF0FF3000F02FF9064A7B6883
:1021A0001360002300E0012318460837BD4680BDB8
:1021B000040000200C0000200800002080B400AFC4
:1021C000064B1B781A46064B1B681344044A1360DF
:1021D00000BFBD465DF8047B704700BF0C000020C7
:1021E000AC02002080B400AF034B1B681846BD460C
:1021F0005DF8047B704700BFAC02002080B584B05E
:1022000000AF7860FFF7EEFFB8607B68FB60FB68AB
:10221000B3F1FF3F05D00A4B1B781A46FB68134405
:10222000FB6000BFFFF7DEFF0246BB68D31AFA6807
:102230009A42F7D800BF00BF1037BD4680BD00BF2F
:102240000C00002080B485B000AF78607B6803F09C
:102250000703FB600C4BDB68BB60BA684FF6FF03FB
:102260001340BB60FB681A02BB68134343F0BF63B3
:1022700043F40033BB60044ABB68D36000BF14372B
:10228000BD465DF8047B704700ED00E080B400AF10
:10229000044BDB681B0A03F007031846BD465DF8D4
:1022A000047B704700ED00E080B483B000AF0346CC
:1022B000FB7197F90730002B0BDBFB7903F01F0252
:1022C000074997F907305B09012000FA02F241F84B
:1022D000232000BF0C37BD465DF8047B704700BF6C
:1022E00000E100E080B483B000AF03463960FB71C9
:1022F00097F90730002B0ADB3B68DAB20C4997F9F3
:1023000007301201D2B20B4483F800230AE03B6885
:10231000DAB20849FB7903F00F03043B1201D2B291
:102320000B441A7600BF0C37BD465DF8047B70473E
:1023300000E100E000ED00E080B489B000AFF8609B
:10234000B9607A60FB6803F00703FB61FB69C3F1C6
:102350000703042B28BF0423BB61FB690433062B4E
:1023600002D9FB69033B00E000237B614FF0FF32A1
:10237000BB6902FA03F3DA43BB681A407B699A40EF
:102380004FF0FF317B6901FA03F3D9437B680B40BF
:10239000134318462437BD465DF8047B70470000A0
:1023A00080B582B000AF78607B68013BB3F1807F7D
:1023B00001D301230FE00A4A7B68013B53600F21E0
:1023C0004FF0FF30FFF78EFF054B00229A60044B61
:1023D00007221A60002318460837BD4680BD00BF9B
:1023E00010E000E080B582B000AF78607868FFF759
:1023F00029FF00BF0837BD4680BD80B586B000AF5D
:102400000346B9607A60FB7300237B61FFF73EFFF0
:1024100078617A68B9687869FFF78EFF024697F9A4
:102420000F3011461846FFF75DFF00BF1837BD4655
:1024300080BD80B582B000AF0346FB7197F90730CD
:102440001846FFF731FF00BF0837BD4680BD80B595
:1024500082B000AF78607868FFF7A2FF03461846A5
:102460000837BD4680BD000080B489B000AF7860F9
:10247000396000237B6100233B610023BB610023A3
:10248000FB616BE10122FB6902FA03F37B613B68AC
:102490001B687A6913403B613A697B699A4240F054
:1024A0005A813B685B6803F00303012B05D03B684E
:1024B0005B6803F00303022B30D17B689B68BB6130
:1024C000FB695B00032202FA03F3DB43BA691340A2
:1024D000BB613B68DA68FB695B0002FA03F3BA6927
:1024E0001343BB617B68BA699A607B685B68BB61B8
:1024F0000122FB6902FA03F3DB43BA691340BB61B3
:102500003B685B681B0903F00102FB6902FA03F3F5
:10251000BA691343BB617B68BA695A603B685B6800
:1025200003F00303032B17D07B68DB68BB61FB69F7
:102530005B00032202FA03F3DB43BA691340BB6179
:102540003B689A68FB695B0002FA03F3BA691343BC
:10255000BB617B68BA69DA603B685B6803F00303C0
:10256000022B23D1FB69DA087B68083253F822304A
:10257000BB61FB6903F007039B000F2202FA03F320
:10258000DB43BA691340BB613B681A69FB6903F01E
:1025900007039B0002FA03F3BA691343BB61FB69AB
:1025A000DA087B680832B96943F822107B681B6837
:1025B000BB61FB695B00032202FA03F3DB43BA69E8
:1025C0001340BB613B685B6803F00302FB695B007F
:1025D00002FA03F3BA691343BB617B68BA691A60F4
:1025E0003B685B6803F44033002B00F0B4800023A9
:1025F000FB60604B5B6C5F4A43F4804353645D4B0C
:102600005B6C03F48043FB60FB685B4AFB699B08DF
:10261000023352F82330BB61FB6903F003039B00D4
:102620000F2202FA03F3DB43BA691340BB617B68F4
:10263000524A93422BD07B68514A934225D07B6803
:10264000504A93421FD07B684F4A934219D07B680F
:102650004E4A934213D07B684D4A93420DD07B681B
:102660004C4A934207D07B684B4A934201D10723DF
:102670000EE008230CE006230AE0052308E004230B
:1026800006E0032304E0022302E0012300E000232C
:10269000FA6902F0030292009340BA691343BB61E6
:1026A0003549FB699B080233BA6941F823203B4B4B
:1026B0001B68BB613B69DB43BA691340BB613B6884
:1026C0005B6803F48033002B03D0BA693B69134382
:1026D000BB61324ABB691360304B5B68BB613B69CD
:1026E000DB43BA691340BB613B685B6803F40033AA
:1026F000002B03D0BA693B691343BB61274ABB690E
:102700005360264B9B68BB613B69DB43BA6913404E
:10271000BB613B685B6803F48013002B03D0BA698C
:102720003B691343BB611D4ABB6993601B4BDB686C
:10273000BB613B69DB43BA691340BB613B685B68C3
:1027400003F40013002B03D0BA693B691343BB6148
:10275000124ABB69D360FB690133FB61FB690F2B34
:102760007FF690AE00BF00BF2437BD465DF8047B06
:10277000704700BF003802400038014000000240AE
:102780000004024000080240000C02400010024019
:102790000014024000180240001C0240003C0140AE
:1027A00080B485B000AF78600B467B807B681A6987
:1027B0007B881340002B02D00123FB7301E0002330
:1027C000FB73FB7B18461437BD465DF8047B7047EE
:1027D00080B483B000AF78600B467B8013467B707B
:1027E0007B78002B03D07A887B689A6103E07B8832
:1027F0001A047B689A6100BF0C37BD465DF8047B04
:10280000704780B485B000AF78600B467B807B68F2
:102810005B69FB607A88FB6813401A04FB68D94344
:102820007B880B401A437B689A6100BF1437BD4612
:102830005DF8047B7047000080B586B000AF78601B
:102840007B68002B01D1012364E27B681B6803F0E5
:102850000103002B75D0A34B9B6803F00C03042BE2
:102860000CD0A04B9B6803F00C03082B12D19D4B9E
:102870005B6803F48003B3F5800F0BD1994B1B68A1
:1028800003F40033002B5BD07B685B68002B57D1CF
:1028900001233FE27B685B68B3F5803F06D1914B33
:1028A0001B68904A43F4803313601DE07B685B68CB
:1028B000B3F5A02F0CD18B4B1B688A4A43F48023BD
:1028C0001360884B1B68874A43F4803313600BE026
:1028D000844B1B68834A23F480331360814B1B684D
:1028E000804A23F4802313607B685B68002B13D03D
:1028F000FFF778FC386108E0FFF774FC02463B699B
:10290000D31A642B01D9032304E2764B1B6803F42A
:102910000033002BF0D014E0FFF764FC386108E0CE
:10292000FFF760FC02463B69D31A642B01D90323ED
:10293000F0E16C4B1B6803F40033002BF0D100E096
:1029400000BF7B681B6803F00203002B63D0654B5C
:102950009B6803F00C03002B0BD0624B9B6803F0C9
:102960000C03082B1CD15F4B5B6803F48003002B26
:1029700016D15C4B1B6803F00203002B05D07B686B
:10298000DB68012B01D00123C4E1564B1B6823F007
:10299000F8027B681B69DB00524913430B603AE085
:1029A0007B68DB68002B20D04F4B01221A60FFF7B9
:1029B00019FC386108E0FFF715FC02463B69D31AA1
:1029C000022B01D90323A5E1464B1B6803F0020348
:1029D000002BF0D0434B1B6823F0F8027B681B6987
:1029E000DB00404913430B6015E03F4B00221A60A7
:1029F000FFF7F8FB386108E0FFF7F4FB02463B699C
:102A0000D31A022B01D9032384E1364B1B6803F050
:102A10000203002BF0D17B681B6803F00803002B36
:102A200030D07B685B69002B16D0304B01221A60D6
:102A3000FFF7D8FB386108E0FFF7D4FB02463B699B
:102A4000D31A022B01D9032364E1264B5B6F03F0F9
:102A50000203002BF0D015E0244B00221A60FFF790
:102A6000C1FB386108E0FFF7BDFB02463B69D31AA2
:102A7000022B01D903234DE11A4B5B6F03F00203D4
:102A8000002BF0D17B681B6803F00403002B00F0DF
:102A9000A0800023FB75134B1B6C03F08053002BAD
:102AA0000FD10023BB600F4B1B6C0E4A43F08053C9
:102AB00013640C4B1B6C03F08053BB60BB68012399
:102AC000FB750B4B1B6803F48073002B21D1084B63
:102AD0001B68074A43F480731360FFF783FB386178
:102AE00011E000BF0038024000004742800E47421C
:102AF00000700040FFF776FB02463B69D31A022BB9
:102B000001D9032306E1854B1B6803F48073002B76
:102B1000F0D07B689B68012B06D1814B1B6F804AEC
:102B200043F0010313671CE07B689B68052B0CD105
:102B30007B4B1B6F7A4A43F004031367784B1B6F80
:102B4000774A43F0010313670BE0754B1B6F744A20
:102B500023F001031367724B1B6F714A23F00403C8
:102B600013677B689B68002B15D0FFF73BFB386130
:102B70000AE0FFF737FB02463B69D31A41F288327D
:102B8000934201D90323C5E0654B1B6F03F0020399
:102B9000002BEED014E0FFF725FB38610AE0FFF7C9
:102BA00021FB02463B69D31A41F28832934201D994
:102BB0000323AFE05A4B1B6F03F00203002BEED14F
:102BC000FB7D012B05D1564B1B6C554A23F08053DE
:102BD00013647B689B69002B00F09B80504B9B68C3
:102BE00003F00C03082B5CD07B689B69022B41D15E
:102BF0004C4B00221A60FFF7F5FA386108E0FFF746
:102C0000F1FA02463B69D31A022B01D9032381E072
:102C1000434B1B6803F00073002BF0D17B68DA692B
:102C20007B681B6A1A437B685B6A9B011A437B685B
:102C30009B6A5B08013B1B041A437B68DB6A1B062B
:102C4000374913434B60374B01221A60FFF7CAFA2A
:102C5000386108E0FFF7C6FA02463B69D31A022B37
:102C600001D9032356E02E4B1B6803F00073002BA1
:102C7000F0D04EE02B4B00221A60FFF7B3FA386118
:102C800008E0FFF7AFFA02463B69D31A022B01D9DD
:102C900003233FE0224B1B6803F00073002BF0D1AD
:102CA00037E07B689B69012B01D1012332E01C4B8B
:102CB0005B68FB607B689B69012B28D0FB6803F491
:102CC00080027B68DB699A4221D1FB6803F03F02F6
:102CD0007B681B6A9A421AD1FA6847F6C0731340A0
:102CE0007A68526A9201934211D1FB6803F4403230
:102CF0007B689B6A5B08013B1B049A4207D1FB6817
:102D000003F070627B68DB6A1B069A4201D00123E4
:102D100000E0002318461837BD4680BD0070004013
:102D2000003802406000474280B584B000AF786050
:102D300039607B68002B01D10123CCE0684B1B6814
:102D400003F007033A689A420CD9654B3A68D2B24D
:102D50001A70634B1B6803F007033A689A4201D06C
:102D60000123B8E07B681B6803F00203002B20D02E
:102D70007B681B6803F00403002B05D0594B9B684C
:102D8000584A43F4E05393607B681B6803F00803E0
:102D9000002B05D0534B9B68524A43F46043936029
:102DA000504B9B6823F0F0027B689B684D491343AE
:102DB0008B607B681B6803F00103002B44D07B68A9
:102DC0005B68012B07D1474B1B6803F40033002BD2
:102DD00019D101237FE07B685B68022B03D07B68FD
:102DE0005B68032B07D13F4B1B6803F00073002B7C
:102DF00009D101236FE03B4B1B6803F00203002B5A
:102E000001D1012367E0374B9B6823F003027B6805
:102E10005B68344913438B60FFF7E4F9F8600AE01C
:102E2000FFF7E0F90246FB68D31A41F28832934279
:102E300001D903234FE02B4B9B6803F00C027B6806
:102E40005B689B009A42EBD1254B1B6803F007039C
:102E50003A689A420CD2224B3A68D2B21A70204B8E
:102E60001B6803F007033A689A4201D0012332E05D
:102E70007B681B6803F00403002B08D0194B9B6888
:102E800023F4E0527B68DB68164913438B607B6850
:102E90001B6803F00803002B09D0124B9B6823F436
:102EA00060427B681B69DB000E4913438B6000F0B6
:102EB00021F802460B4B9B681B0903F00F030A49DC
:102EC000CB5C22FA03F3094A1360094B1B681846CE
:102ED000FFF744F9002318461037BD4680BD00BFF8
:102EE000003C0240003802406468000804000020F2
:102EF000080000202DE9B04384B000AF00237B60C0
:102F00000023FB6000233B600023BB60674B9B6892
:102F100003F00C03082B0DD0082B00F2BD80002B12
:102F200002D0042B03D0B7E0614BBB60B7E0614B2C
:102F3000BB60B4E05D4B5B6803F03F037B605B4BC1
:102F40005B6803F48003002B4DD0584B5B689B09F2
:102F50001A464FF0000340F2FF104FF0000102EA62
:102F6000000803EA0109404649464FF000024FF0CD
:102F700000034B0143EAD063420110461946B0EB0F
:102F8000080061EB09014FF000024FF000038B01D4
:102F900043EA90638201121A63EB01034FF00000D1
:102FA0004FF00001D90041EA5271D00002460B46B1
:102FB00012EB080243EB09034FF000004FF0000151
:102FC000590241EAD251500202460B4610461946B8
:102FD0007B681A464FF00003FDF736FE02460B46AB
:102FE0001346FB604AE0314B5B689B091A464FF081
:102FF000000340F2FF104FF0000102EA000403EA70
:103000000105204629464FF000024FF000034B0116
:1030100043EAD063420110461946001B61EB0501EB
:103020004FF000024FF000038B0143EA90638201EE
:10303000121A63EB01034FF000004FF00001D900BA
:1030400041EA5271D00002460B46121945EB0303C8
:103050004FF000004FF00001990241EA92519002B6
:1030600002460B46104619467B681A464FF000038D
:10307000FDF7EAFD02460B461346FB600B4B5B680F
:103080001B0C03F0030301335B003B60FA683B68F1
:10309000B2FBF3F3BB6002E0054BBB6000BFBB6853
:1030A00018461037BD46BDE8B08300BF0038024067
:1030B0000024F40000127A0080B582B000AF78607E
:1030C0007B68002B01D1012341E07B6893F83D3000
:1030D000DBB2002B06D17B68002283F83C207868A5
:1030E000FEF7BEFE7B68022283F83D207B681A68EB
:1030F0007B6804331946104600F0FEFA7B68012213
:1031000083F846207B68012283F83E207B680122F9
:1031100083F83F207B68012283F840207B680122EE
:1031200083F841207B68012283F842207B680122DA
:1031300083F843207B68012283F844207B680122C6
:1031400083F845207B68012283F83D200023184640
:103150000837BD4680BD000080B485B000AF786000
:103160007B6893F83D30DBB2012B01D0012346E0B0
:103170007B68022283F83D207B681B68234A9342C8
:1031800022D07B681B68B3F1804F1DD07B681B6821
:103190001F4A934218D07B681B681E4A934213D083
:1031A0007B681B681C4A93420ED07B681B681B4AD5
:1031B000934209D07B681B68194A934204D07B680C
:1031C0001B68184A934211D17B681B689B6803F007
:1031D0000703FB60FB68062B10D07B681B681A682E
:1031E0007B681B6842F001021A6007E07B681B687D
:1031F0001A687B681B6842F001021A6000231846B7
:103200001437BD465DF8047B704700BF00000140E5
:103210000004004000080040000C00400004014091
:10322000004001400018004080B485B000AF7860D5
:103230007B6893F83D30DBB2012B01D001234EE0D7
:103240007B68022283F83D207B681B68DA687B6814
:103250001B6842F00102DA607B681B68234A9342D4
:1032600022D07B681B68B3F1804F1DD07B681B6840
:103270001F4A934218D07B681B681E4A934213D0A2
:103280007B681B681C4A93420ED07B681B681B4AF4
:10329000934209D07B681B68194A934204D07B682B
:1032A0001B68184A934211D17B681B689B6803F026
:1032B0000703FB60FB68062B10D07B681B681A684D
:1032C0007B681B6842F001021A6007E07B681B689C
:1032D0001A687B681B6842F001021A6000231846D6
:1032E0001437BD465DF8047B704700BF0000014005
:1032F0000004004000080040000C004000040140B1
:10330000004001400018004080B582B000AF7860F6
:103310007B681B681B6903F00203022B22D17B68C8
:103320001B68DB6803F00203022B1BD17B681B6860
:103330006FF002021A617B6801221A777B681B68B2
:103340009B6903F00303002B03D0786800F0B5F904
:1033500005E0786800F0A7F9786800F0B8F97B68B4
:1033600000221A777B681B681B6903F00403042B97
:1033700022D17B681B68DB6803F00403042B1BD19C
:103380007B681B686FF004021A617B6802221A775F
:103390007B681B689B6903F44073002B03D078683B
:1033A00000F08BF905E0786800F07DF9786800F0AE
:1033B0008EF97B6800221A777B681B681B6903F013
:1033C0000803082B22D17B681B68DB6803F0080325
:1033D000082B1BD17B681B686FF008021A617B68A1
:1033E00004221A777B681B68DB6903F00303002B58
:1033F00003D0786800F061F905E0786800F053F9CF
:10340000786800F064F97B6800221A777B681B6893
:103410001B6903F01003102B22D17B681B68DB684B
:1034200003F01003102B1BD17B681B686FF0100298
:103430001A617B6808221A777B681B68DB6903F4D2
:103440004073002B03D0786800F037F905E0786806
:1034500000F029F9786800F03AF97B6800221A77C1
:103460007B681B681B6903F00103012B0ED17B688D
:103470001B68DB6803F00103012B07D17B681B6825
:103480006FF001021A617868FEF76EFC7B681B68BA
:103490001B6903F08003802B0ED17B681B68DB68FF
:1034A00003F08003802B07D17B681B686FF08002DC
:1034B0001A61786800F0E0FA7B681B681B6903F00A
:1034C0004003402B0ED17B681B68DB6803F0400390
:1034D000402B07D17B681B686FF040021A61786847
:1034E00000F0FFF87B681B681B6903F02003202BAA
:1034F0000ED17B681B68DB6803F02003202B07D10B
:103500007B681B686FF020021A61786800F0AAFAE5
:1035100000BF0837BD4680BD80B584B000AF78607D
:1035200039600023FB737B6893F83C30012B01D199
:103530000223B4E07B68012283F83C207B680222EE
:1035400083F83D207B681B689B68BB60BB6823F0E9
:103550007703BB60BB6823F47F43BB607B681B6859
:10356000BA689A603B681B68B3F5005F3ED0B3F55C
:10357000005F00F28780B3F5805F00F08680B3F5CE
:10358000805F7FD8702B1AD0702B7BD8602B50D0E7
:10359000602B77D8502B3CD0502B73D8402B58D071
:1035A000402B6FD8302B64D0302B6BD8202B60D0C1
:1035B000202B67D8002B5CD0102B5AD062E07B68A0
:1035C00018683B6899683B685A683B68DB6800F09C
:1035D000ADF97B681B689B68BB60BB6843F07703F1
:1035E000BB607B681B68BA689A604FE07B681868AC
:1035F0003B6899683B685A683B68DB6800F096F95D
:103600007B681B689A687B681B6842F480429A60FA
:103610003CE07B6818683B6859683B68DB681A4681
:1036200000F00AF97B681B685021184600F063F926
:103630002CE07B6818683B6859683B68DB681A4671
:1036400000F029F97B681B686021184600F053F9E7
:103650001CE07B6818683B6859683B68DB681A4661
:1036600000F0EAF87B681B684021184600F043F937
:103670000CE07B681A683B681B681946104600F02E
:103680003AF903E00123FB7300E000BF7B680122ED
:1036900083F83D207B68002283F83C20FB7B1846A2
:1036A0001037BD4680BD80B483B000AF786000BFE6
:1036B0000C37BD465DF8047B704780B483B000AF23
:1036C000786000BF0C37BD465DF8047B704780B45E
:1036D00083B000AF786000BF0C37BD465DF8047B57
:1036E000704780B483B000AF786000BF0C37BD4630
:1036F0005DF8047B7047000080B485B000AF78604F
:1037000039607B681B68FB607B68404A934213D03A
:103710007B68B3F1804F0FD07B683D4A93420BD05A
:103720007B683C4A934207D07B683B4A934203D074
:103730007B683A4A934208D1FB6823F07003FB6030
:103740003B685B68FA681343FB607B682F4A9342CF
:103750002BD07B68B3F1804F27D07B682C4A9342F3
:1037600023D07B682B4A93421FD07B682A4A93421E
:103770001BD07B68294A934217D07B68284A934222
:1037800013D07B68274A93420FD07B68264A934226
:103790000BD07B68254A934207D07B68244A93422A
:1037A00003D07B68234A934208D1FB6823F440731B
:1037B000FB603B68DB68FA681343FB60FB6823F03F
:1037C00080023B685B691343FB607B68FA681A60A0
:1037D0003B689A687B68DA623B681A687B689A6221
:1037E0007B680A4A934203D07B680C4A934203D118
:1037F0003B681A697B681A637B6801225A6100BFC3
:103800001437BD465DF8047B704700BF00000140DF
:103810000004004000080040000C0040000401408B
:1038200000400140004401400048014000180040B1
:10383000001C00400020004080B487B000AFF8605A
:10384000B9607A60FB681B6A7B61FB681B6A23F0C6
:103850000102FB681A62FB689B693B613B6923F0CC
:10386000F0033B617B681B013A6913433B617B6951
:1038700023F00A037B617A69BB6813437B61FB68B1
:103880003A699A61FB687A691A6200BF1C37BD46C3
:103890005DF8047B704780B487B000AFF860B96012
:1038A0007A60FB681B6A23F01002FB681A62FB68EF
:1038B0009B697B61FB681B6A3B617B6923F47043F6
:1038C0007B617B681B037A6913437B613B6923F04F
:1038D000A0033B61BB681B013A6913433B61FB6872
:1038E0007A699A61FB683A691A6200BF1C37BD4663
:1038F0005DF8047B704780B485B000AF78603960B4
:103900007B689B68FB60FB6823F07003FB603A6890
:10391000FB68134343F00703FB607B68FA689A6017
:1039200000BF1437BD465DF8047B704780B487B094
:1039300000AFF860B9607A603B60FB689B687B61B0
:103940007B6923F47F437B613B681A027B681A43DF
:10395000BB6813437A6913437B61FB687A699A6099
:1039600000BF1C37BD465DF8047B704780B485B04E
:1039700000AF786039607B6893F83C30012B01D14F
:1039800002235AE07B68012283F83C207B680222F4
:1039900083F83D207B681B685B68FB607B681B6865
:1039A0009B68BB60FB6823F07003FB603B681B688F
:1039B000FA681343FB607B681B68FA685A607B688F
:1039C0001B68214A934222D07B681B68B3F1804F69
:1039D0001DD07B681B681D4A934218D07B681B680A
:1039E0001B4A934213D07B681B681A4A93420ED03D
:1039F0007B681B68184A934209D07B681B68174A8A
:103A0000934204D07B681B68154A93420CD1BB6873
:103A100023F08003BB603B685B68BA681343BB60FC
:103A20007B681B68BA689A607B68012283F83D2036
:103A30007B68002283F83C20002318461437BD46DB
:103A40005DF8047B704700BF0000014000040040A7
:103A500000080040000C004000040140004001400C
:103A60000018004080B483B000AF786000BF0C370E
:103A7000BD465DF8047B704780B483B000AF7860CA
:103A800000BF0C37BD465DF8047B7047014B1868DA
:103A9000704700BF1000002070B50D4D0D4C641B29
:103AA000A4100026A64209D10B4D0C4C02F0B6FE24
:103AB000641BA4100026A64205D170BD55F8043B36
:103AC00098470136EEE755F8043B98470136F2E790
:103AD0005C6C00085C6C00085C6C0008606C0008A2
:103AE00002440346934200D1704703F8011BF9E7F3
:103AF0002DE9FF4755EC104B002D0E4619462B467D
:103B0000BBBF05F100431D4600232D230B700D9B09
:103B1000DDF830A0914623F02008BCBF22461446B1
:103B2000B8F1460F05D0B8F1450F00D1013602219A
:103B300000E0032103AB019302AB009345EC104B73
:103B40005346324600F0ECFCB8F1470F074602D16D
:103B500019F0010F22D0B8F1460F07EB060910D17A
:103B60003B78302B0AD10022002320462946FCF75F
:103B7000ABFF18B9C6F10106CAF80060DAF80030E8
:103B800099440022002320462946FCF79DFF08B1F6
:103B9000CDF80C903022039B4B4507D3039B0E9A24
:103BA000DB1B3846136004B0BDE8F087591C039155
:103BB0001A70F0E7F7B503460029B8BF494203F889
:103BC000022BB4BF2D222B22092942702ADD0DF1D0
:103BD0000704A4460A27A6460A4691FBF7F607FB08
:103BE00016153035632A04F1FF340EF8015C3146B6
:103BF000F1DC3031AEF1020504F8011C441C294609
:103C000061450AD30DF10902A2EB0E02654588BF9A
:103C100000221344181A03B0F0BD11F8012B04F868
:103C2000012FEDE7302330318370C170031DF1E7C0
:103C30002DE9F04F2DED028B8DB00C46DDF8608044
:103C400016461F46054601F057FAD0F800A0504628
:103C5000FCF7BEFA00230A9323680593D8F80030D6
:103C600094F818B0073323F0070303F10802C8F8EB
:103C70000020D3E90023C4E91223D4E9128929F0F2
:103C800000430793CDF8188008EE100A9F4BDDE93A
:103C900006014FF0FF32FCF749FF88BBDDE9060162
:103CA0009A4B4FF0FF32FCF723FF48BB0022002362
:103CB00040464946FCF712FF10B12D2384F84330EB
:103CC000934B9448BBF1470F94BF9846804603231B
:103CD0002361059B23F0040222604FF00009009746
:103CE00033460BAA2146284600F0D8F9013040F0AF
:103CF00090804FF0FF300DB0BDEC028BBDE8F08F2F
:103D000042464B4640464946FCF710FF40B14B4601
:103D1000002BBCBF2D2384F843307F487F4BD1E775
:103D200063680BF0DF0206925A1C3FD106236360E2
:103D3000059B616843F48062002303930AABCDE9DD
:103D400001B309AB49EC108B009322600DF1230302
:103D50002846FFF7CDFE069B0999472B804608D1E0
:103D6000C81C02DB6368994241DDABF1020B5FFACC
:103D70008BFBBBF1650F20D801395A4604F1500086
:103D80000991FFF717FF0A9A1318012A8146236148
:103D900002DC2268D20701D5013323619DF823306C
:103DA000002B9CD02D2384F8433098E7069A472AAD
:103DB000BED1002BBCD10123B9E7BBF1660F18D1EE
:103DC000002963680BDD216113B92268D00702D591
:103DD00001330B442361A1654FF00009DEE713B9FD
:103DE0002268D20701D50233F4E70123F2E74FF04E
:103DF000670B0A9B994205DB23682161D807EAD546
:103E00004B1CE7E70029D4BFC1F102020122134491
:103E1000E0E723685A0507D423694246314628461D
:103E2000B84701302CD164E7BBF1650F40F2E08068
:103E3000D4E9120100220023FCF746FE002834D00A
:103E4000374A012331462846B84701303FF451AF85
:103E5000DDE909239A4202DB2368D80710D518EE62
:103E6000103A524631462846B84701303FF441AF38
:103E70004FF0000804F11A090A9B013B434509DC95
:103E800023689B0700F10581E0680B9B9842B8BF4F
:103E9000184630E701234A4631462846B8470130E4
:103EA0003FF427AF08F10108E6E7099B002B39DC56
:103EB0001B4A012331462846B84701303FF419AF69
:103EC000DDE90923134302D12368D907D8D518EEB9
:103ED000103A524631462846B84701303FF409AF00
:103EE0004FF0000904F11A0A099B5B424B4501DCC3
:103EF0000A9B92E70123524631462846B8470130D3
:103F00003FF4F7AE09F10109EEE700BFFFFFEF7FD5
:103F1000786800087C6800088468000880680008E9
:103F2000886800080A9AA36D9A42A8BF1A46002A18
:103F3000914637DC4FF0000B29EAE97904F11A02C7
:103F4000A36D0593A3EB09035B4533DCDDE909238E
:103F50009A423BDB2368DA0738D40A9A059B099911
:103F6000D31AA2EB01099945A8BF9946B9F1000FF0
:103F700035DC4FF0000829EAE97904F11A0ADDE995
:103F800009239B1AA3EB090343457FF779AF01236C
:103F9000524631462846B84701303FF4AAAE08F1F0
:103FA0000108ECE71346314642462846B84701303F
:103FB000C0D19EE60123314628460592B84701301C
:103FC0003FF497AE059A0BF1010BB9E718EE103AE2
:103FD000524631462846B8470130BED189E6059A97
:103FE0004B46424431462846B8470130C1D180E6AD
:103FF0000A9A012A01DCDB0738D501234246314603
:104000002846B84701303FF474AE18EE103A5246D5
:1040100031462846B84701303FF46BAED4E912016F
:1040200000220023FCF750FDD8B90A9B08F10102D9
:10403000013B31462846B84701300ED159E60123ED
:10404000524631462846B84701303FF452AE08F197
:1040500001080A9B013B4345F1DC4B4604F1500249
:10406000DCE64FF0000804F11A0AF2E701234246A9
:10407000DFE701234A4631462846B84701303FF47E
:1040800038AE08F10108E3680B995B1A4345F0DC90
:10409000FAE64FF0000804F11909F4E72DE9F047BA
:1040A000164699468A680B69DDF820809342B8BFAE
:1040B0001346336091F8432007460C460AB101339A
:1040C00033602368990642BF336802333360256842
:1040D00015F0060506D104F1190AE36832689B1A47
:1040E000AB4226DC94F84320131E226818BF01233C
:1040F00092062BD404F1430249463846C0470130AA
:104100001ED02368E568326803F00603042B08BF5D
:10411000AD1AA36822690CBF25EAE5750025934214
:10412000C4BF9B1AED1800261A34B5421AD10020DC
:1041300008E00123524649463846C047013003D1C2
:104140004FF0FF30BDE8F0870135C6E7E1185A1C93
:10415000302081F84300224494F8451082F843103F
:104160000233C7E70123224649463846C04701309B
:10417000E6D00136D9E700002DE9FF470C4691460D
:10418000277E0C99782F80469A4604F1430207D87F
:10419000622F0AD8002F00F0D880582F00F0A3809B
:1041A00004F1420684F842703AE0A7F16303152B4C
:1041B000F6D801A050F823F011420008254200086B
:1041C000A1410008A1410008A1410008A141000847
:1041D00025420008A1410008A1410008A1410008B2
:1041E000A14100083143000855420008134300086C
:1041F000A1410008A141000853430008A141000863
:1042000055420008A1410008A14100081B430008D5
:104210000B681A1D1B680A6004F1420684F84230DC
:104220000123A3E0256808682E0600F104030AD5DF
:1042300005680B60002D03DA2D236D4284F84330AE
:104240005E480A2319E015F0400F05680B6018BF9F
:104250002DB2EFE70B682568181D0860280601D508
:104260001D6802E06906FBD51D8854486F2F0CBFFE
:1042700008230A23002184F843106668A660002EF4
:10428000A2BF216821F0040121600DB9002E4DD09C
:104290001646B5FBF3F103FB1157C75D06F8017D28
:1042A0002F46BB420D46F4D9082B0BD12368DF07FC
:1042B00008D5236961689942DEBF302306F8013CC6
:1042C00006F1FF36921B2261CDF800A04B4603AAEF
:1042D00021464046FFF7E2FE01304CD14FF0FF305F
:1042E00004B0BDE8F087354884F8457023680E684F
:1042F0001F0656F8045B0E6014D5D90744BF43F07F
:10430000200323601DB9236823F0200323601023BA
:10431000B0E7236843F0200323607823284884F81B
:104320004530E3E75E0648BFADB2E6E71646BBE7B9
:104330000B68266860691D1D0D6035061B6801D578
:10434000186002E07106FBD5188000232361164631
:10435000BAE70B681A1D0A601E68626800213046C1
:10436000FBF73EFF08B1801B606063682361002398
:1043700084F84330A8E72369324649464046D0478F
:104380000130ABD023689B0713D4E068039B9842AD
:10439000B8BF1846A4E70123324649464046D047F5
:1043A00001309BD00135E36803995B1AAB42F2DC24
:1043B000EBE7002504F11906F5E700BF8A6800085D
:1043C0009B6800080EB400B59CB01DAB029006902F
:1043D0006FF00041094807910491094953F8042BF3
:1043E00005910068019302A901F034FB029B0022B1
:1043F0001A701CB05DF804EB03B070471000002089
:104400000802FFFF2DE9F74F03690C69A342074635
:10441000C0F28180013C01F1140800F1140505EBA4
:104420008403019358F8243055F8242001339A422C
:104430004FEA840B08EB8409B2FBF3F631D34FF05B
:10444000000E4046AC46F24650F8042B93B206FBF1
:1044500003E34FEA134E9BB2AAEB0303120CDCF802
:1044600000A006FB02E213FA8AF34FEA124E1FFA8B
:1044700082FADCF80020CAEB124202EB23429BB224
:1044800043EA024381454CF8043B4FEA224ADBD21F
:1044900055F80B302BB9019B043B9D421A462ED395
:1044A0003C61384601F0C0F8002824DB013628467C
:1044B0004FF0000C58F8042BD0F800E093B2ACEBAE
:1044C0000303120C13FA8EF3C2EB1E4202EB2342DB
:1044D0009BB243EA0243C14540F8043B4FEA224CF9
:1044E000E8D255F8242005EB840322B9043B9D4211
:1044F0001A460AD33C61304603B0BDE8F08F12681B
:10450000043B002ACCD1013CC7E71268043B002AD7
:10451000F0D1013CEBE70020EEE7000000000000D6
:104520002DE9F04F2DED028B57EC106B95B0456ADD
:10453000DDF880800591CDE90267044609920F936A
:1045400075B9102000F0DCFD0246606220B9B24B64
:10455000EA21B24801F08EFBC0E901550560C56053
:10456000636A196851B15A684A60012393408B60AD
:10457000204600F01BFE636A00221A603B1EB9BF92
:1045800023F0004303930023C8F80030DDF80C90BB
:10459000A34BBCBF0122C8F8002033EA09031BD19A
:1045A0000F9A42F20F731360C9F31303334300F001
:1045B0007A85219B63B99B4B24E09B4B0093083386
:1045C000219A1360009815B0BDEC028BBDE8F08F06
:1045D000944B00930333F3E79DED027B002251ECF3
:1045E000170B00238DED0A7BFCF76EFA804658B15D
:1045F0000F9A01231360219B002B00F051858B48FB
:104600001860431E0093DDE79DED0A0B12AA13A963
:10461000204601F0ADF8C9F30A558346002D7CD041
:104620000B9BCDF84080C3F31303DDE90A6743F029
:104630007F5747F44017A5F2FF357D4B00223046E7
:104640003946FBF721FE6EA3D3E90023FBF7D4FF25
:104650006DA3D3E90023FBF719FE064628460F4653
:10466000FBF760FF6AA3D3E90023FBF7C5FF02460F
:104670000B4630463946FBF709FE06460F46FCF767
:104680006BFA00228246002330463946FCF726FAB0
:1046900048B15046FBF746FF32463B46FCF714FA5A
:1046A00008B90AF1FF3ABAF1160F54D8614B03EB7F
:1046B000CA03D3E90023DDE90A01FCF70FFA002859
:1046C0004BD00AF1FF3A00230E93129B5D1B6B1E29
:1046D000049343BF0023C5F1010804934FF0000881
:1046E000BAF1000F3BDB049BCDF834A05344049394
:1046F00000230693059B092B69D8052BC4BF043BF7
:104700000593059BA3F10203CCBF00250125032BD4
:1047100069D8DFE803F02C4E4C5ADDE912531D44F2
:1047200005F23243202BC1BFC3F1400305F2124012
:1047300009FA03F326FA00F0DABFC3F1200306FA00
:1047400003F01843FBF7DEFE01230646A1F1F877DC
:10475000013D109371E70123B6E70E90B5E7CAF16A
:10476000000306930023A8EB0A080D93C2E7002379
:104770000893099B002B39DC4FF00109CDF8049018
:104780004B46CDF82490606A00224260042202F178
:1047900014069E4241682FD9204600F0C7FC0090C5
:1047A00000284BD1244B02464FF4D571D1E60123AA
:1047B000DEE700230893099B0AEB030909F10103D3
:1047C000012B0193B8BF0123DDE70123F2E70125A7
:1047D0000023059308954FF0FF390022CDF804908F
:1047E00012230992CFE701230893F4E7DDF8249020
:1047F000CDF804904B46C6E7013141605200C6E750
:1048000061436F63A787D23FB3C8608B288AC63FD6
:10481000FB799F501344D33FB9680008D068000863
:104820000000F07FB5680008AC68000889680008DF
:104830000000F83FC86900082F690008636A009A01
:104840001A60019B0E2B00F2AD80002D00F0AA80B3
:10485000BAF1000F36DDC34A0AF00F0302EBC303BF
:1048600093ED007B1AF4807F4FEA2A17B0EE478A57
:10487000F0EE678A16D0BC4BDDE90A01D3E90823C4
:10488000FBF7E4FFCDE9020107F00F070325B64E61
:1048900057B9DDE9020153EC182BFBF7D7FFCDE93F
:1048A000020129E00225F2E7F90708D551EC180BBF
:1048B000D6E90023FBF7A0FE41EC180B01357F1071
:1048C0000836E5E700F0A680CAF10006A54BA64F22
:1048D00006F00F0203EBC203D3E90023DDE90A016E
:1048E000FBF78AFECDE90201361100230225002ED6
:1048F00040F08580002BD2D10E9B002B00F08C80E5
:10490000DDE90267994B002230463946FCF7E6F8AC
:10491000002800F08180019B002B7DD0B9F1000FB1
:104920003CDD0AF1FF3307930022914B30463946B4
:10493000FBF762FECDE902010135CDF83090DDE9EB
:1049400002672846FBF7EEFD32463B46FBF754FE76
:10495000884B0022FBF79AFCA1F15073CDE90201CC
:1049600003930C9B002B5CD1834B002230463946CD
:10497000FBF78AFCDDE9022306460F46FCF7CCF87C
:10498000002840F09682DDE90221304601F1004323
:104990003946FCF7A3F8002840F08882DDE90A23B5
:1049A000CDE90223139B002BC0F25881BAF10E0F00
:1049B00000F354816B4B03EBCA03D3E90089099BD5
:1049C000002B80F2E380019B002B00F3DF8040F09E
:1049D0006D82694B002240464946FBF70DFEDDE93A
:1049E0000223FCF78FF8019E3746002840F04382EF
:1049F000009D312305F8013B0AF1010A3FE2F2076D
:104A000005D5D7E90023FBF7F7FD01350123761023
:104A100008376CE702256FE7019BCDF81CA00C93CB
:104A20008DE700990C980C9A4E4B9DED027B01444A
:104A300002910899B0EE478AF0EE678A03EBC20351
:104A400053E90223002945D04C490020FBF7FEFE24
:104A500053EC182BFBF718FC009D41EC180B394662
:104A60003046FCF779F80C90FBF75CFD02460B46EC
:104A700030463946FBF708FC0C9B303305F8013B08
:104A800053EC182B06460F46FCF728F8002865D192
:104A900032463B4635490020FBF7F6FB53EC182B1A
:104AA000FCF71CF8002840F0B980029B9D423FF4BF
:104AB00075AF2F4B51EC180B0022FBF79DFD2C4BD3
:104AC00041EC180B002230463946FBF795FD0646AF
:104AD0000F46C4E751EC170BFBF78EFD029B009DC0
:104AE0000C9341EC180B39463046FCF735F8119021
:104AF000FBF718FD02460B4630463946FBF7C4FB70
:104B0000119B303305F8013B029B9D4206460F4640
:104B10004FF0000234D1194B51EC180BFBF7B6FBE8
:104B200002460B4630463946FBF7F6FF002875D1A2
:104B300053EC182B11490020FBF7A6FB02460B464D
:104B400030463946FBF7CAFF00283FF427AF0C9DDB
:104B50006B1E0C9315F8013C302BF8D0DDF81CA02F
:104B60004AE000BFC8690008A06900080000F03FE3
:104B70000000244000001C40000014400000E03F02
:104B8000AF4BFBF739FD06460F46ACE7DDE90267A0
:104B9000009D42464B4630463946FBF757FEFBF731
:104BA000DBFF0290FBF7BEFC42464B46FBF724FDC1
:104BB00002460B4630463946FBF766FB029E019FD4
:104BC000303605F8016B009EAE1BB74202460B461D
:104BD00037D1FBF75BFB42464B4606460F46FBF7D9
:104BE0009BFFC8B942464B4630463946FBF76CFF3F
:104BF00010B1029BD9070FD42046594600F0D6FACF
:104C000000232B700F9B0AF101001860219B002BE1
:104C10003FF4D8AC1D60D5E4CDF81CA02B461D4652
:104C200013F8012D392A08D1009A9A42F7D1079A30
:104C300000990132079230220A701A7801321A70F4
:104C40008CE77F4B0022FBF7D7FC002200230646AF
:104C50000F46FBF739FF00289BD0CDE7089A002AC2
:104C600000F0C480059A012A00F3A880109A002A57
:104C700000F0A08003F23343069E4546049A0121CA
:104C80001A4420469844049200F04CFB0746002D3D
:104C90000BDD049B002B08DDAB42049AA8BF2B461A
:104CA000A8EB0308ED1AD31A0493069BFBB1089BEB
:104CB000002B00F09F80002E11DD39463246204641
:104CC00000F0ECFB5A4601460746204600F040FB48
:104CD00059460790204600F069FA079B9B46069BC1
:104CE0009A1B04D05946204600F0D8FB8346012188
:104CF000204600F017FB0D9B002B06467CDD1A4674
:104D00000146204600F0CAFB059B012B064676DDD6
:104D100000230693336906EB8303186900F0B2FAA7
:104D2000C0F12000049B184410F01F0000F08680A2
:104D3000C0F12003042B7FDDC0F11C00049B034461
:104D4000804405440493B8F1000F05DD59464246FE
:104D5000204600F0FDFB8346049B002B05DD314619
:104D60001A46204600F0F4FB06460E9B002B69D045
:104D70003146584600F058FC002863DA00235946B3
:104D80000A22204600F034FA089B0AF1FF3A8346D3
:104D9000002B00F08F81394600230A22204600F0C4
:104DA00027FAB9F1000F074600F38E80059B022B0E
:104DB00050DC89E0129BC3F136035DE7019B5E1E68
:104DC000069BB342BFBF069B0696F21A0D9BB6BF69
:104DD0009B189E1B0D93019BB8BF0026002BB5BFEF
:104DE000A8EB0305019B0023454647E7069E089F65
:104DF00045464CE7069A75E7059B012B18DC029B9C
:104E0000B3B9039BC3F31303A3B9039B23F000437C
:104E10001B0D1B052BB1049B0133049308F1010802
:104E2000012306930D9B002B7FF474AF012079E7DB
:104E30000023F6E7029BF4E785D018461C307DE797
:104E400000002440019B002B38DC059B022B35DD44
:104E5000DDF80490B9F1000F0DD131464B46052223
:104E6000204600F0C5F901460646584600F0DCFB36
:104E700000283FF7BDAD099B009D6FEA030A4FF084
:104E800000083146204600F091F9002F3FF4B4AEFF
:104E9000B8F1000F05D0B84503D04146204600F0D8
:104EA00085F93946204600F081F9A5E60026374607
:104EB000E1E70C9EDDF81CA0374699E5089BDDF87C
:104EC0000490002B00F0FD80002D05DD39462A46B8
:104ED000204600F03DFB0746069B002B5CD079681E
:104EE000204600F023F9054628B9804B024640F2DF
:104EF000EA21FFF72EBB3A690232920007F10C015A
:104F00000C3000F005F901222946204600F020FB74
:104F1000009B01330193009B4B440793029B03F0DA
:104F20000103B84606930746019B3146013B5846AC
:104F30000293FFF767FA0346303304904146584620
:104F4000089300F071FB3A4681463146204600F056
:104F500087FBC268089B054602BB0146584600F025
:104F600063FB089B024629462046CDE9083200F043
:104F70001DF9059B099A019D43EA0201069B0B431B
:104F8000089B0DD1392B29D0B9F1000F01DD049B0D
:104F90003133029A137074E73846B9E70122E2E729
:104FA000B9F1000F06DB059941EA0909069959EAAA
:104FB000010120D1002AECDD59460122204601934F
:104FC00000F0C6FA3146834600F02EFB0028019B14
:104FD00002DCDED1DA07DCD5392BD8D1029A3923AD
:104FE00013702B461D46013B15F8012C392A50D071
:104FF00001321A7045E7002A03DD392BEED0013368
:10500000C7E7019A079902F8013C8A422AD059461B
:1050100000230A22204600F0EBF8B84583464FF003
:1050200000034FF00A024146204607D100F0E0F8A5
:1050300080460746019B0133019375E700F0D8F8DD
:105040003946804600230A22204600F0D1F8074660
:10505000F0E7B9F1000F009ACCBF4D460125154489
:105060004FF00008594601222046019300F070FAE3
:105070003146834600F0D8FA0028B2DC02D1019B09
:10508000DB07AED42B461D4613F8012D302AFAD08B
:10509000F7E6009A9A42A5D10AF1010A312379E78D
:1050A000134BFFF7AFBA219B002B7FF486AA114B5D
:1050B000FFF7A8BAB9F1000F03DC059B022B3FF7FD
:1050C000C9AE009D31465846FFF79CF900F1300308
:1050D00005F8013B009AAA1A9145BADD594600230A
:1050E0000A22204600F084F88346EBE72F69000887
:1050F00088680008AC680008004870476401002018
:10510000024B0146186800F0EFBB00BF1000002002
:105110000A44914200F1FF3300D1704710B511F8F5
:10512000014B03F8014F9142F9D110BD70B5466AA9
:1051300004460D4676B91020FFF7E2FF0246606292
:1051400020B9184B1848662100F094FDC0E90166AB
:105150000660C660666AF36883B1636ADB6853F809
:105160002500B8B9012101FA05F6721D920020460A
:1051700000F05AFB60B1C0E901560EE02122042183
:10518000204600F051FB636AF060DB68002BE4D13D
:10519000002070BD026843F825200023C0E90333D6
:1051A000F7E700BFB96800084069000870B5466AB3
:1051B00005460C4676B91020FFF7A2FF024668624A
:1051C00020B9094B09488A2100F054FDC0E9016665
:1051D0000660C6603CB16B6A6268DB6853F82210F7
:1051E000216043F8224070BDB9680008406900089A
:1051F0002DE9F0410E69074698460C4601F114006E
:1052000000230568A9B202FB01814FEA114C2D0C65
:1052100002FB05C589B2013301EB05419E4240F80E
:10522000041B4FEA1548ECDCB8F1000F22D0A3684C
:10523000B34219DC616838460131FFF777FF054654
:1052400028B902460D4B0E48B52100F013FD226926
:10525000023204F10C0192000C30FFF759FF214695
:105260003846FFF7A3FF2C4604EB86030136C3F84C
:10527000148026612046BDE8F08100BF2F69000838
:1052800040690008030C1B04D3B90004102310F07C
:105290007F4F04BF0002083310F0704F04BF0001BD
:1052A000043310F0404F04BF80000233002805DBB8
:1052B00010F0804F03F1010308BF20231846704708
:1052C0000023E4E7036813F0070201460BD0DA0776
:1052D00024D4980749BF5B089B0801200B605CBF82
:1052E0000B600220704798B2B0B91B0C102013F06D
:1052F000FF0F04BF1B0A08301A0704BF1B09043044
:105300009A0704BF9B080230DA0703D45B0800F158
:10531000010005D00B6070471046E8E70020704799
:105320002020704710B50C460121FFF7FFFE024612
:1053300028B9054B05484FF4A07100F09BFC0123F0
:105340004461036110BD00BF2F6900084069000877
:105350002DE9F04F14460A6923699A42B8BF0B46FB
:105360000D46BCBF25461C46D5F810A0D4F81090B9
:10537000AB6869680AEB0907BB4285B0B8BF013169
:10538000FFF7D4FE30B90246424B434840F25D116C
:1053900000F070FC00F1140606EB8708334600228B
:1053A00043451ED305F1140C04F114030CEB8A0CD5
:1053B00003EB89020292ACEB0502153A22F00302DC
:1053C000043205F115018C4538BF04220192029A7E
:1053D00003939A4208D8002F55DC076105B0BDE859
:1053E000F08F43F8042BDBE7B3F800A0BAF1000F0D
:1053F00020D005F1140EB14600225EF8044BD9F816
:1054000000B0A1B21FFA8BFB0AFB01B11144D9F81D
:105410000020240C120C0AFB042404EB114489B272
:1054200041EA0441F44549F8041B4FEA1442E4D828
:1054300001997250039AB2F802900433B9F1000F47
:105440001FD0346805F11401B6464FF0000A0A88EF
:10545000BEF802B009FB02B29244A4B244EA0A4484
:105460004EF8044B51F8044BBEF80020240C09FB05
:10547000042404EB1A448C454FEA144AE7D8019AF5
:10548000B4500436A3E758F8043D002BA5D1013FE2
:10549000A1E700BF2F690008406900082DE9F84323
:1054A000154612F0030206460F4607D0254C013A76
:1054B000002354F82220FFF79BFE0746AD103DD095
:1054C000746A7CB91020FFF71BFE0246706228B98F
:1054D0001D4B1E484FF4D77100F0CCFBC0E90144CE
:1054E0000460C460D6F82480D8F808404CB940F273
:1054F00071213046FFF716FF0023C8F80800044664
:1055000003604FF00009EB070AD5394622463046C2
:10551000FFF71EFF394680463046FFF747FE4746F5
:105520006D100BD0206838B9224621463046FFF76F
:105530000FFF2060C0F800900446E4E73846BDE85D
:10554000F88300BF906A0008B96800084069000845
:105550002DE9F0470C464968236903EB6218A368FC
:10556000074691464FEA621A08F10106B3420BDB87
:105570003846FFF7DBFD054648B90246284B294867
:1055800040F2D91100F076FB01315B00EEE7002319
:1055900000F1140100F110021846534533DB206975
:1055A0002AEAEA7A04F1140319F01F0901EB8A01CF
:1055B00003EB800C2BD0C9F1200E8A46002218681C
:1055C00000FA09F002434AF8042B53F8042B9C45D7
:1055D00022FA0EF2F3D8ACEB0403153B23F00303DD
:1055E000043304F11500844538BF0423CA500AB1BE
:1055F00008F10206013E38462E612146FFF7D6FD2E
:105600002846BDE8F08742F8040F0133C5E70439A6
:1056100053F8042B41F8042F9C45F9D8EAE700BF62
:105620002F6900084069000830B502690C69121B37
:105630000ED100F11403143103EB840001EB84015B
:1056400050F8045D51F8044DA54203D005D3012262
:10565000104630BD8342F3D3FAE74FF0FF32F7E74D
:105660002DE9F84F0C460646114620461746FFF72F
:10567000DBFF051E10D129463046FFF757FD30B934
:10568000394B024640F23221384800F0F3FA012348
:10569000C0E90435BDE8F88FA4BF3B462746304635
:1056A0007968A6BF1C4600250125FFF73FFD20B9FC
:1056B0002D4B02464FF41071E6E73E69C56025693F
:1056C00007F1140104F1140900F1140E07F110029E
:1056D00001EB860C09EB8505F246002759F8043BDF
:1056E00052F804BF1FFA83F817FA8BF71B0CA7EBCD
:1056F0000808C3EB1B4303EB28431FFA88F81F1469
:105700004D4548EA03434AF8043BE7D82B1B153BB9
:1057100023F0030304331534A54238BF042319448E
:1057200073449E460D4665450ED30CF10302521A92
:1057300022F0030203398C4538BF00221A4452F884
:10574000043D7BB10661A5E755F8048B17FA88F490
:10575000221402EB1842A4B244EA02444EF8044B6D
:105760001714E0E7013EEAE72F69000840690008E6
:105770002DE9F7438946012157EC106B9046FFF75E
:10578000D5FC044630B90246254B264840F20A3182
:1057900000F070FAC7F30A55C7F3130335BB002EA8
:1057A000019328D068460096FFF78CFD009900B35E
:1057B000019AC0F1200302FA03F30B43C240636174
:1057C0000192019BA361002B14BF022201222261DE
:1057D000D5B1A5F233450544C9F80050C0F13500F4
:1057E000C8F80000204603B0BDE8F08343F48013FE
:1057F000D5E76161E5E701A8FFF764FD019B6361FF
:10580000012222612030E3E704EB8203A0F2324060
:10581000C9F800001869FFF735FDC0EB4210DFE75B
:105820002F6900084069000813B54A4311460192E8
:1058300000F05AF8044618B1019A0021FEF750F919
:10584000204602B010BD000037B5002948D051F8FD
:10585000043C0190002BA1F10404B8BFE41800F04F
:1058600065FA204A01981368154633B963601460DD
:1058700003B0BDE8304000F05FBAA3420BD9216805
:105880006218934204BF1A685B68636004BF5218D1
:1058900022602C60ECE71A465B680BB1A342FAD990
:1058A00011685518A5420BD1246821445418A3420D
:1058B0001160DDD11C685B68536021441160D7E73B
:1058C00002D90C230360D3E7256861198B4204BF1A
:1058D00019685B68636004BF491921605460C7E7B9
:1058E00003B030BD28020020F8B5CD1C25F003051B
:1058F00008350C2D38BF0C25002D064601DBA942CA
:1059000003D90C2333600020F8BD00F00FFA2149C1
:105910000A6814469CB9204F3B6823B9214630469B
:1059200000F098F938602946304600F093F9431C9E
:1059300023D10C233360304600F0FEF9E3E72368FF
:105940005B1B17D40B2B03D923601C44256004E098
:105950006368A2420CBF0B605360304600F0ECF964
:1059600004F10B00231D20F00700C21ACCD01B1A33
:10597000A350C9E722466468CCE7C41C24F00304A2
:10598000A042E3D0211A304600F064F90130DDD1A5
:10599000CFE700BF280200202C0200202DE9F047AD
:1059A0008E689E4282460C4690461F4638D88A89A9
:1059B00012F4906F32D025680969A5EB0109656979
:1059C00005EB450505EBD57501334B446D109D4244
:1059D00038BF1D46530531D52946FFF785FF0646DA
:1059E00050B90C23CAF80030A38943F04003A381C7
:1059F0004FF0FF30BDE8F08721694A46FFF788FB8A
:105A0000A38923F4906343F08003A3812661656139
:105A10004E44A5EB09052660A5603E46BE4200D96E
:105A20003E4632462068414600F066F9A368226887
:105A30009B1B3244A36022600020DBE72A4600F073
:105A400081F906460028E1D121695046FFF7FCFEA6
:105A5000C7E700002DE9F04F98468B891B069DB0E3
:105A600007460D4614460ED50B6963B94021FFF772
:105A70003BFF2860286120B90C233B604FF0FF30CA
:105A8000D1E040236B610023099320238DF8293056
:105A9000CDF80C803023DFF8A8818DF82A304FF044
:105AA000010923469A4613F8012B0AB1252AF9D198
:105AB000BAEB040B0BD05B46224629463846FFF76B
:105AC0006DFF013000F0AA80099A5A4409929AF8B1
:105AD0000030002B00F0A28000234FF0FF32CDE910
